:100000001CC0FECFFDCF50C04CC061C0F9CFF8CFAF
:10001000FFC052C0F5CFF4CFF3CFF2CFF1CF000045
:100020000000000000000000000081010C00020040
:100030001E000200E0002A000000F894EE27ECBB4E
:10004000E5BFF8E1A895A4B7A77FA4BFF1BDE1BDC6
:100050008DE0A2E0BB27ED938A95E9F780E092E07E
:10006000A0E6ED930197E9F7ECE2F0E08591959138
:10007000009761F0A591B59105901590BF01F00131
:1000800005900D920197E1F7FB01F0CFE0E0E1BBB5
:10009000E2BBE3BBEFE5EDBFE2E0EEBFC0EED0E0D8
:1000A000E2C0C19AC39A1895EA93EFB7EA93EEB506
:1000B000EF3F08F4C19807C0EA93EFB7EA93EBB5B6
:1000C000EF3F08F4C398E991EFBFE99118950A92C0
:1000D0001A926A937A93AA93BA93EA93FA93EFB730
:1000E000EA93E3E8E2BFA895C29AF10131961F01B5
:1000F000BF0100248014900414F0F40102C0F40144
:1001000004D1A8E5B2E005D1EA1BFB0BE617F7071F
:1001100014F422243324E4E1F0E0E815F9052CF08E
:10012000ECEEFFEF8E169F060CF40CC000240A14B0
:100130000B040CF4D3D00024A014B0040CF4D2D0DF
:1001400066243BC0D3D0E4E1F0E0EA1BFB0B8E1643
:100150009F0624F4C298AA24BB242FC0E4E6F0E052
:10016000E215F3050CF4C2980024081409049CF469
:10017000D4015497AA16BB0614F4BDD00CF001C0EC
:10018000B1D0D4015497AA15BB0514F4B9D00CF022
:1001900001C0A4D012C0D4015496AA16BB0614F410
:1001A000AAD00CF001C09ED0D4015496AA15BB056C
:1001B00014F4A6D00CF001C091D00024A014B00417
:1001C0005CF4E4E7FFEFAE16BF0614F4E1E06E2E38
:1001D000EA2DE150EEBD11C000240A140B0454F4C2
:1001E000ECE8F0E0EA15FB0514F4E1E06E2EEFEF29
:1001F000EA1902C0EFEFEEBDEBBDE991EFBFF99157
:10020000E991B991A99179916991199009901895FD
:100210008A93AA93BA93EA93FA93EFB7EA93E4B175
:10022000F5B14E0E5F1E7394E6E0E71570F4559439
:1002300047945594479455944794772457D0F201A6
:10024000EA1BFB0B4F0144245524E2E4E7B98BE1A0
:100250008A95F1F7369AE991EFBFF991E991B99151
:10026000A99189911895E0E8E6BDE0E0E6BDEEE0F1
:10027000E8BBE7BBE0E0EABDE3E0E3BFE3E8E2BF01
:10028000E0E0E9BDE8BDE7BDE9E0E0BFE0E0ECBDEE
:10029000EFBDEFEFEEBDEBBDE0E0EDBDEBBFE5BFC9
:1002A000E6E6E9BFE0E0EDB9E0E8E8B9E0E0E3B9AF
:1002B000E4BBE4B3E370E4BBE4B3E161E4BBE2E4D8
:1002C000E7B9EEECE6B9E3B1EF75E3B9A895E9E378
:1002D000E1BDE9E2E1BD7894FFCFFFCFF5013197B1
:1002E0005F010895F50131965F010895A091E00046
:1002F000B091E1000895EFEFF0E0AE16BF0608956B
:10030000E1E0FFEFEA15FB050895F195E195F04076
:1003100008951B2EBF2FF12D1A2EAE2FE12D08951B
:00000001FF
